:10000000020003758159120995E582600302006FB1
:10001000780079007A007B007C007D00EC4D601C4C
:1000200088828983E493A3A882A9838A828B83F040
:10003000A3AA82AB831CBCFFE31D80E07582007520
:1000400083007C007D00EC4D600AE4F0A31CBCFF43
:10005000F51D80F27582007583007C007D00EC4DFB
:10006000600AE4F0A31CBCFFF51D80F21200991297
:10007000029080FE313A2025692C20323A202569F1
:1000800000333A2025692C20343A202569003C4E63
:100090004F20464C4F41543E002275840075850028
:1000A00075910075920075A40075A50075B1007575
:1000B000B200227852D8FE22AA82AB837C007D0057
:1000C000C3EC9AED9B50227E14C002C003C004C052
:1000D00005C0061200B3D006D005D004D003D0026C
:1000E000DEE70CBC00DA0D80D722D2A51200B3C225
:1000F000A5228582E0A2E79294A2E69296A2E592DA
:1001000097A2E492A0A2E392A1A2E292A2A2E1921B
:10011000A3A2E092A40200EAAA82D2A78A821200D5
:10012000F29000020200B8AA82C2A78A821200F2EC
:100130009000050200B8C2A5C2A69000141200B833
:1001400075823312012775823312012775823312AB
:10015000012775823812012775820C1201277582DA
:10016000011201279000140200B8AA82AB83ACF000
:100170007402B522047DC080027D808D82C002C0E1
:1001800003C0041201279000051200B8D004D00368
:10019000D0027D00ED2AFEE43BFF8C008E828F832F
:1001A00088F01202ABFE60188E82C002C003C00449
:1001B000C005120118D005D004D003D0020D80D4A0
:1001C0003000148D02BA1000500D758220C002124A
:1001D0000118D0020A80EE227A2879FA78B8D8FE7F
:1001E000D9FADAF62275BD0075BF0075BE3075BD4F
:1001F000037598527591007592002243841E5385B1
:10020000E1D2C675A12075A3F0759705E59730E397
:10021000FB22AAD67B00ACD57D00C002C003C0047F
:10022000C0057474C0E07400C0E07480C0E0742342
:10023000C0E07400C0E07440C0E0120316E5812401
:10024000F6F581AAF57B00ACD77D00C002C003C0E3
:1002500004C0057481C0E07400C0E07480C0E07424
:1002600034C0E07400C0E07440C0E0120316E581C1
:1002700024F6F581752201D20090002375F040121A
:10028000016A752202D20090003475F04002016AC2
:1002900012009A1201361201E51201FB120212C27B
:1002A000B01201D8D2B01201D880F120F71430F684
:1002B000148883A88220F507E6A88375830022E2CC
:1002C00080F7E49322E022AA82AB09AC0AAD0B8B43
:1002D000828C838DF0EA12097C0509E4B5090205D8
:1002E0000A2285820985830A85F00B850C53850DCA
:1002F00054850E55850F569002C71203E5AA82ABAE
:1003000083AC09AD0AAE0B8C828D838EF0E41209AA
:100310007C8A828B8322C008858108E50824F8F551
:1003200056E50824FBF8860908860A08860BE508C6
:1003300024F8F886530886540886559002C712039D
:10034000E5AA82AB83AC09AD0AAE0B8C828D838E9D
:10035000F0E412097C8A828B83D00822AA82746D11
:10036000C0E07403C0E0C045C0468A8222054CE468
:10037000B54C02054D22AA8274302AFA24C6500ACE
:1003800074072AFA3001034302208A8202035CE5E3
:1003900082FAC4540FF582C002120376D002740FA1
:1003A0005AF582020376AA47AB48AC49AD4AAE4B38
:1003B000755220EE2EFEED235401FF4206EA2AFA82
:1003C000EB33FBEC33FCED33FDC3EE954E4008EE12
:1003D000C3954EFE430201D552D98A478B488C49BA
:1003E0008D4A8E4B22858245858346E4F54CF54D3A
:1003F000AA53AB54AC558A828B838CF01202ABFDAE
:1004000074012AF553E43BF5548C55EDFA70030260
:100410000975BA2502800302096DC205C206C2072A
:10042000C208C209C20AC20BC20CC202C203C20481
:10043000754E00754F007550FFAB53AC54AD558BE6
:10044000828C838DF01202ABFAA3AB82AC838B5308
:100450008C548D55BA25078A8212035C80928A06D5
:10046000BE3000402E8A06EE24C6402774FFB550E9
:1004700013E54F75F00AA4FEEA24D02EF54F70BFA5
:10048000D20680BBE55075F00AA4FEEA24D02EF512
:100490005080ACBA2E0A74FFB550A4755000809FEE
:1004A0008A06BE6100400E8A06EE2485400753028C
:1004B000DFD2018002C201BA20028075BA23030292
:1004C0000540BA2A03020545BA2B02805FBA2D0205
:1004D0008055BA4202805FBA430302058ABA4403D8
:1004E0000206C5BA45030206DFBA46030206DBBAB6
:1004F00047030206E3BA49030206C5BA4C02803B31
:10050000BA4E030206E7BA4F030206CCBA50030202
:10051000065EBA53030205AEBA55030206D1BA58B5
:10052000030206D6020711D20502043FD2070204D5
:100530003FD20802043FD20A02043FD20B02043F1A
:10054000D20C02043F74FFB55020300A0BE556145C
:10055000F88856864F02043FE55624FEF8885686F2
:1005600006088607188E4F02043F300A0BE5561422
:10057000F88856865002043FE55624FEF8885686D1
:1005800006088607188E5002043F300A0AE5561402
:10059000F888568602800FE55624FEF888568603B2
:1005A000088604188B028A8212035C020716E5563D
:1005B00024FDF88856860308860408860518188BDB
:1005C000478C488D498B828C838DF0120999AB82C0
:1005D000AC838B5174FFB5500385515020051DC36A
:1005E000E551954F5016E54FC39551F54FAB4F155B
:1005F0004FEB600875822012035C80F1854782858D
:1006000048838549F01202ABFBFA6029AB501550C4
:10061000C3E464808BF063F08095F050188A8212F6
:10062000035CAB47AC48AD490BBB00010C8B478C5E
:10063000488D4980C7200503020716C3E551954F31
:100640004003020716E54FC39551F54FAB4F154FC9
:10065000EB700302071675822012035C80EEE556EC
:1006600024FDF88856860308860408860518188B2A
:10067000478C488D49E549FB30E7047A438013EB0A
:10068000546060047A50800AEB30E6047A498002B4
:100690007A588A82C00212035C75823A12035C7532
:1006A000823012035C75827812035CD002BA490270
:1006B000800BBA5002800685488212038F854782DC
:1006C00012038F8051D209754E0A804A754E0880F8
:1006D00045754E0A8040754E10803BD2028037D25D
:1006E000038033D204802FE55624FDF88856860314
:1006F00008860408860518188B478C488D498B821C
:100700008C838DF0E54C12097CA3E54D12097C80A9
:10071000058A8212035C20020620030330045AE596
:100720005624FCF888568603088604088605088641
:10073000061818188B478C488D498E4A75478E7558
:10074000480075498085475785485885495974013F
:100750002557FEE43558FFAB598E478F488B4985A6
:1007600057828558838559F01202ABFBFA70030259
:1007700003F08A8212035C80CCE54E70030203F022
:100780007B16300A2BE55614F88856E6FC3395E0C4
:10079000FDFEFF8C478D488E498F4A20095EAC478D
:1007A0007D007E007F008C478D488E498F4A804CAB
:1007B000300B1FE55624FCF8885686040886050889
:1007C00086060886071818188C478D488E498F4A68
:1007D000802AE55624FEF88856860408860518ED1A
:1007E0003395E0FEFF8C478D488E498F4A20090CD7
:1007F000AC47AD487E007F008E498F4A300C43E500
:100800004745484549454A60397408B54E0C7582DC
:1008100030C00312035CD00380287410B54E2375DA
:100820008230C00312035CD00330010C758278C0A3
:100830000312035CD003800A758258C00312035C64
:10084000D003300925AC47AD48AE49E54AFF30E753
:1008500017C3E49CFCE49DFDE49EFEE49FFF8C47EF
:100860008D488E498F4A8002C209755100D20D8B86
:1008700000754B00C0001203A6D000200D0DE54B03
:10088000C4FCE6FD4CF61888038002A64B0551B265
:100890000DE54745484549454A70D68803E54F7000
:1008A00003754F0120061A200517E55104FCC39576
:1008B0004F500E758220C00312035CD003154F8089
:1008C000E930090E75822DC00312035CD003154F69
:1008D0008024E551602030070E75822BC00312037F
:1008E0005CD003154F800F30080C758220C00312B6
:1008F000035CD003154F20051EAC4F154FC3E551C7
:100900009C50273006047C3080027C208C82C003FF
:1009100012035CD00380E2C3E551954F5009E54FC7
:10092000C39551F54F8003754F008B00AB511551A6
:10093000EB6022B20D200D0A08E6C4540FFB8B4B6E
:1009400080078603740F5BF54B854B82C000120352
:1009500076D00080D72005030203F0AB4F154FEB94
:1009600070030203F075822012035C80EE8A82120B
:10097000035C0203F0854C82854D832220F7103002
:10098000F6118883A88220F507F6A88375830022D4
:10099000F280F7F02275820022AA82AB83ACF07D50
:1009A000007E008A828B838CF01202ABFFA3AA82A6
:1009B000AB83EF60070DBD00EA0E80E78D828E836A
:1009C0002200000000000000000000000000000005
:00000001FF
